{
  "contractName": "Healthcare",
  "abi": [
    {
      "constant": true,
      "inputs": [
        {
          "name": "",
          "type": "uint256"
        }
      ],
      "name": "doctorList",
      "outputs": [
        {
          "name": "",
          "type": "address"
        }
      ],
      "payable": false,
      "stateMutability": "view",
      "type": "function",
      "signature": "0x127ca4b4"
    },
    {
      "constant": true,
      "inputs": [
        {
          "name": "",
          "type": "uint256"
        }
      ],
      "name": "insurerList",
      "outputs": [
        {
          "name": "",
          "type": "address"
        }
      ],
      "payable": false,
      "stateMutability": "view",
      "type": "function",
      "signature": "0x78ffb292"
    },
    {
      "constant": true,
      "inputs": [
        {
          "name": "",
          "type": "uint256"
        }
      ],
      "name": "patientList",
      "outputs": [
        {
          "name": "",
          "type": "address"
        }
      ],
      "payable": false,
      "stateMutability": "view",
      "type": "function",
      "signature": "0xbabb1d41"
    },
    {
      "constant": false,
      "inputs": [
        {
          "name": "_name",
          "type": "string"
        },
        {
          "name": "_age",
          "type": "uint256"
        },
        {
          "name": "_designation",
          "type": "uint256"
        },
        {
          "name": "_hash",
          "type": "string"
        }
      ],
      "name": "add_agent",
      "outputs": [],
      "payable": false,
      "stateMutability": "nonpayable",
      "type": "function",
      "signature": "0xf02d90a4"
    },
    {
      "constant": true,
      "inputs": [
        {
          "name": "addr",
          "type": "address"
        }
      ],
      "name": "get_patient",
      "outputs": [
        {
          "name": "",
          "type": "string"
        },
        {
          "name": "",
          "type": "uint256"
        },
        {
          "name": "",
          "type": "uint256[]"
        },
        {
          "name": "",
          "type": "address"
        },
        {
          "name": "",
          "type": "string"
        }
      ],
      "payable": false,
      "stateMutability": "view",
      "type": "function",
      "signature": "0x4042d2d4"
    },
    {
      "constant": true,
      "inputs": [
        {
          "name": "addr",
          "type": "address"
        }
      ],
      "name": "get_doctor",
      "outputs": [
        {
          "name": "",
          "type": "string"
        },
        {
          "name": "",
          "type": "uint256"
        }
      ],
      "payable": false,
      "stateMutability": "view",
      "type": "function",
      "signature": "0x56c98c48"
    },
    {
      "constant": true,
      "inputs": [
        {
          "name": "paddr",
          "type": "address"
        },
        {
          "name": "daddr",
          "type": "address"
        }
      ],
      "name": "get_patient_doctor_name",
      "outputs": [
        {
          "name": "",
          "type": "string"
        },
        {
          "name": "",
          "type": "string"
        }
      ],
      "payable": false,
      "stateMutability": "view",
      "type": "function",
      "signature": "0x1e3fc3b8"
    },
    {
      "constant": true,
      "inputs": [
        {
          "name": "addr",
          "type": "address"
        }
      ],
      "name": "get_insurer",
      "outputs": [
        {
          "name": "",
          "type": "string"
        },
        {
          "name": "",
          "type": "uint256"
        },
        {
          "name": "",
          "type": "address[]"
        },
        {
          "name": "",
          "type": "address[]"
        },
        {
          "name": "",
          "type": "uint256[]"
        }
      ],
      "payable": false,
      "stateMutability": "view",
      "type": "function",
      "signature": "0xa44672cf"
    },
    {
      "constant": false,
      "inputs": [
        {
          "name": "addr",
          "type": "address"
        }
      ],
      "name": "permit_access",
      "outputs": [],
      "payable": true,
      "stateMutability": "payable",
      "type": "function",
      "signature": "0xbcffb7ca"
    },
    {
      "constant": false,
      "inputs": [
        {
          "name": "iaddr",
          "type": "address"
        },
        {
          "name": "_diagnosis",
          "type": "uint256[]"
        }
      ],
      "name": "select_insurer",
      "outputs": [],
      "payable": true,
      "stateMutability": "payable",
      "type": "function",
      "signature": "0xda9bdff5"
    },
    {
      "constant": false,
      "inputs": [
        {
          "name": "paddr",
          "type": "address"
        },
        {
          "name": "_diagnosis",
          "type": "uint256"
        },
        {
          "name": "_hash",
          "type": "string"
        }
      ],
      "name": "insurance_claim",
      "outputs": [],
      "payable": false,
      "stateMutability": "nonpayable",
      "type": "function",
      "signature": "0xf24be9e7"
    },
    {
      "constant": false,
      "inputs": [
        {
          "name": "paddr",
          "type": "address"
        }
      ],
      "name": "accept_claim",
      "outputs": [],
      "payable": true,
      "stateMutability": "payable",
      "type": "function",
      "signature": "0xb703ea4f"
    },
    {
      "constant": false,
      "inputs": [
        {
          "name": "paddr",
          "type": "address"
        },
        {
          "name": "daddr",
          "type": "address"
        }
      ],
      "name": "remove_patient",
      "outputs": [],
      "payable": false,
      "stateMutability": "nonpayable",
      "type": "function",
      "signature": "0x0362fe9b"
    },
    {
      "constant": true,
      "inputs": [
        {
          "name": "addr",
          "type": "address"
        }
      ],
      "name": "get_accessed_doctorlist_for_patient",
      "outputs": [
        {
          "name": "",
          "type": "address[]"
        }
      ],
      "payable": false,
      "stateMutability": "view",
      "type": "function",
      "signature": "0x007ee3ce"
    },
    {
      "constant": true,
      "inputs": [
        {
          "name": "addr",
          "type": "address"
        }
      ],
      "name": "get_accessed_patientlist_for_doctor",
      "outputs": [
        {
          "name": "",
          "type": "address[]"
        }
      ],
      "payable": false,
      "stateMutability": "view",
      "type": "function",
      "signature": "0xdd44176b"
    },
    {
      "constant": false,
      "inputs": [
        {
          "name": "daddr",
          "type": "address"
        }
      ],
      "name": "revoke_access",
      "outputs": [],
      "payable": true,
      "stateMutability": "payable",
      "type": "function",
      "signature": "0x27b1dcee"
    },
    {
      "constant": true,
      "inputs": [],
      "name": "get_patient_list",
      "outputs": [
        {
          "name": "",
          "type": "address[]"
        }
      ],
      "payable": false,
      "stateMutability": "view",
      "type": "function",
      "signature": "0xe81ac054"
    },
    {
      "constant": true,
      "inputs": [],
      "name": "get_doctor_list",
      "outputs": [
        {
          "name": "",
          "type": "address[]"
        }
      ],
      "payable": false,
      "stateMutability": "view",
      "type": "function",
      "signature": "0xc39e9635"
    },
    {
      "constant": true,
      "inputs": [],
      "name": "get_insurer_list",
      "outputs": [
        {
          "name": "",
          "type": "address[]"
        }
      ],
      "payable": false,
      "stateMutability": "view",
      "type": "function",
      "signature": "0xee59d4cd"
    },
    {
      "constant": true,
      "inputs": [
        {
          "name": "paddr",
          "type": "address"
        }
      ],
      "name": "get_hash",
      "outputs": [
        {
          "name": "",
          "type": "string"
        }
      ],
      "payable": false,
      "stateMutability": "view",
      "type": "function",
      "signature": "0x7e1519ce"
    }
  ],
  "bytecode": "0x608060405234801561001057600080fd5b50613596806100206000396000f3fe608060405260043610610111576000357c0100000000000000000000000000000000000000000000000000000000900463ffffffff1680627ee3ce146101165780630362fe9b146101bc578063127ca4b41461022d5780631e3fc3b8146102a857806327b1dcee146103fe5780634042d2d41461044257806356c98c48146105fa57806378ffb292146106cb5780637e1519ce14610746578063a44672cf14610810578063b703ea4f146109b9578063babb1d41146109fd578063bcffb7ca14610a78578063c39e963514610abc578063da9bdff514610b28578063dd44176b14610c00578063e81ac05414610ca6578063ee59d4cd14610d12578063f02d90a414610d7e578063f24be9e714610ef1575b600080fd5b34801561012257600080fd5b506101656004803603602081101561013957600080fd5b81019080803573ffffffffffffffffffffffffffffffffffffffff169060200190929190505050610fe3565b6040518080602001828103825283818151815260200191508051906020019060200280838360005b838110156101a857808201518184015260208101905061018d565b505050509050019250505060405180910390f35b3480156101c857600080fd5b5061022b600480360360408110156101df57600080fd5b81019080803573ffffffffffffffffffffffffffffffffffffffff169060200190929190803573ffffffffffffffffffffffffffffffffffffffff1690602001909291905050506110b9565b005b34801561023957600080fd5b506102666004803603602081101561025057600080fd5b8101908080359060200190929190505050611155565b604051808273ffffffffffffffffffffffffffffffffffffffff1673ffffffffffffffffffffffffffffffffffffffff16815260200191505060405180910390f35b3480156102b457600080fd5b50610317600480360360408110156102cb57600080fd5b81019080803573ffffffffffffffffffffffffffffffffffffffff169060200190929190803573ffffffffffffffffffffffffffffffffffffffff169060200190929190505050611193565b604051808060200180602001838103835285818151815260200191508051906020019080838360005b8381101561035b578082015181840152602081019050610340565b50505050905090810190601f1680156103885780820380516001836020036101000a031916815260200191505b50838103825284818151815260200191508051906020019080838360005b838110156103c15780820151818401526020810190506103a6565b50505050905090810190601f1680156103ee5780820380516001836020036101000a031916815260200191505b5094505050505060405180910390f35b6104406004803603602081101561041457600080fd5b81019080803573ffffffffffffffffffffffffffffffffffffffff16906020019092919050505061135d565b005b34801561044e57600080fd5b506104916004803603602081101561046557600080fd5b81019080803573ffffffffffffffffffffffffffffffffffffffff1690602001909291905050506113c9565b6040518080602001868152602001806020018573ffffffffffffffffffffffffffffffffffffffff1673ffffffffffffffffffffffffffffffffffffffff16815260200180602001848103845289818151815260200191508051906020019080838360005b838110156105115780820151818401526020810190506104f6565b50505050905090810190601f16801561053e5780820380516001836020036101000a031916815260200191505b50848103835287818151815260200191508051906020019060200280838360005b8381101561057a57808201518184015260208101905061055f565b50505050905001848103825285818151815260200191508051906020019080838360005b838110156105b957808201518184015260208101905061059e565b50505050905090810190601f1680156105e65780820380516001836020036101000a031916815260200191505b509850505050505050505060405180910390f35b34801561060657600080fd5b506106496004803603602081101561061d57600080fd5b81019080803573ffffffffffffffffffffffffffffffffffffffff1690602001909291905050506116d9565b6040518080602001838152602001828103825284818151815260200191508051906020019080838360005b8381101561068f578082015181840152602081019050610674565b50505050905090810190601f1680156106bc5780820380516001836020036101000a031916815260200191505b50935050505060405180910390f35b3480156106d757600080fd5b50610704600480360360208110156106ee57600080fd5b8101908080359060200190929190505050611807565b604051808273ffffffffffffffffffffffffffffffffffffffff1673ffffffffffffffffffffffffffffffffffffffff16815260200191505060405180910390f35b34801561075257600080fd5b506107956004803603602081101561076957600080fd5b81019080803573ffffffffffffffffffffffffffffffffffffffff169060200190929190505050611845565b6040518080602001828103825283818151815260200191508051906020019080838360005b838110156107d55780820151818401526020810190506107ba565b50505050905090810190601f1680156108025780820380516001836020036101000a031916815260200191505b509250505060405180910390f35b34801561081c57600080fd5b5061085f6004803603602081101561083357600080fd5b81019080803573ffffffffffffffffffffffffffffffffffffffff169060200190929190505050611929565b604051808060200186815260200180602001806020018060200185810385528a818151815260200191508051906020019080838360005b838110156108b1578082015181840152602081019050610896565b50505050905090810190601f1680156108de5780820380516001836020036101000a031916815260200191505b50858103845288818151815260200191508051906020019060200280838360005b8381101561091a5780820151818401526020810190506108ff565b50505050905001858103835287818151815260200191508051906020019060200280838360005b8381101561095c578082015181840152602081019050610941565b50505050905001858103825286818151815260200191508051906020019060200280838360005b8381101561099e578082015181840152602081019050610983565b50505050905001995050505050505050505060405180910390f35b6109fb600480360360208110156109cf57600080fd5b81019080803573ffffffffffffffffffffffffffffffffffffffff169060200190929190505050611c8e565b005b348015610a0957600080fd5b50610a3660048036036020811015610a2057600080fd5b810190808035906020019092919050505061232b565b604051808273ffffffffffffffffffffffffffffffffffffffff1673ffffffffffffffffffffffffffffffffffffffff16815260200191505060405180910390f35b610aba60048036036020811015610a8e57600080fd5b81019080803573ffffffffffffffffffffffffffffffffffffffff169060200190929190505050612369565b005b348015610ac857600080fd5b50610ad16124e4565b6040518080602001828103825283818151815260200191508051906020019060200280838360005b83811015610b14578082015181840152602081019050610af9565b505050509050019250505060405180910390f35b610bfe60048036036040811015610b3e57600080fd5b81019080803573ffffffffffffffffffffffffffffffffffffffff16906020019092919080359060200190640100000000811115610b7b57600080fd5b820183602082011115610b8d57600080fd5b80359060200191846020830284011164010000000083111715610baf57600080fd5b919080806020026020016040519081016040528093929190818152602001838360200280828437600081840152601f19601f820116905080830192505050505050509192919290505050612572565b005b348015610c0c57600080fd5b50610c4f60048036036020811015610c2357600080fd5b81019080803573ffffffffffffffffffffffffffffffffffffffff169060200190929190505050612703565b6040518080602001828103825283818151815260200191508051906020019060200280838360005b83811015610c92578082015181840152602081019050610c77565b505050509050019250505060405180910390f35b348015610cb257600080fd5b50610cbb6127d3565b6040518080602001828103825283818151815260200191508051906020019060200280838360005b83811015610cfe578082015181840152602081019050610ce3565b505050509050019250505060405180910390f35b348015610d1e57600080fd5b50610d27612861565b6040518080602001828103825283818151815260200191508051906020019060200280838360005b83811015610d6a578082015181840152602081019050610d4f565b505050509050019250505060405180910390f35b348015610d8a57600080fd5b50610eef60048036036080811015610da157600080fd5b8101908080359060200190640100000000811115610dbe57600080fd5b820183602082011115610dd057600080fd5b80359060200191846001830284011164010000000083111715610df257600080fd5b91908080601f016020809104026020016040519081016040528093929190818152602001838380828437600081840152601f19601f820116905080830192505050505050509192919290803590602001909291908035906020019092919080359060200190640100000000811115610e6957600080fd5b820183602082011115610e7b57600080fd5b80359060200191846001830284011164010000000083111715610e9d57600080fd5b91908080601f016020809104026020016040519081016040528093929190818152602001838380828437600081840152601f19601f8201169050808301925050505050505091929192905050506128ef565b005b348015610efd57600080fd5b50610fe160048036036060811015610f1457600080fd5b81019080803573ffffffffffffffffffffffffffffffffffffffff1690602001909291908035906020019092919080359060200190640100000000811115610f5b57600080fd5b820183602082011115610f6d57600080fd5b80359060200191846001830284011164010000000083111715610f8f57600080fd5b91908080601f016020809104026020016040519081016040528093929190818152602001838380828437600081840152601f19601f820116905080830192505050505050509192919290505050612c50565b005b60606000600460008473ffffffffffffffffffffffffffffffffffffffff1673ffffffffffffffffffffffffffffffffffffffff1681526020019081526020016000206002019050808054806020026020016040519081016040528092919081815260200182805480156110ac57602002820191906000526020600020905b8160009054906101000a900473ffffffffffffffffffffffffffffffffffffffff1673ffffffffffffffffffffffffffffffffffffffff1681526020019060010190808311611062575b5050505050915050919050565b611104600560008373ffffffffffffffffffffffffffffffffffffffff1673ffffffffffffffffffffffffffffffffffffffff168152602001908152602001600020600201836131aa565b50611150600460008473ffffffffffffffffffffffffffffffffffffffff1673ffffffffffffffffffffffffffffffffffffffff168152602001908152602001600020600201826131aa565b505050565b60028181548110151561116457fe5b906000526020600020016000915054906101000a900473ffffffffffffffffffffffffffffffffffffffff1681565b606080600460008573ffffffffffffffffffffffffffffffffffffffff1673ffffffffffffffffffffffffffffffffffffffff168152602001908152602001600020600001600560008573ffffffffffffffffffffffffffffffffffffffff1673ffffffffffffffffffffffffffffffffffffffff168152602001908152602001600020600001818054600181600116156101000203166002900480601f0160208091040260200160405190810160405280929190818152602001828054600181600116156101000203166002900480156112af5780601f10611284576101008083540402835291602001916112af565b820191906000526020600020905b81548152906001019060200180831161129257829003601f168201915b50505050509150808054600181600116156101000203166002900480601f01602080910402602001604051908101604052809291908181526020018280546001816001161561010002031660029004801561134b5780601f106113205761010080835404028352916020019161134b565b820191906000526020600020905b81548152906001019060200180831161132e57829003601f168201915b50505050509050915091509250929050565b61136733826110b9565b3373ffffffffffffffffffffffffffffffffffffffff166108fc671bc16d674ec800009081150290604051600060405180830381858888f193505050501580156113b5573d6000803e3d6000fd5b506002600080828254039250508190555050565b60606000606060006060600460008773ffffffffffffffffffffffffffffffffffffffff1673ffffffffffffffffffffffffffffffffffffffff168152602001908152602001600020600001600460008873ffffffffffffffffffffffffffffffffffffffff1673ffffffffffffffffffffffffffffffffffffffff16815260200190815260200160002060010154600460008973ffffffffffffffffffffffffffffffffffffffff1673ffffffffffffffffffffffffffffffffffffffff168152602001908152602001600020600301600760008a73ffffffffffffffffffffffffffffffffffffffff1673ffffffffffffffffffffffffffffffffffffffff16815260200190815260200160002060009054906101000a900473ffffffffffffffffffffffffffffffffffffffff16600460008b73ffffffffffffffffffffffffffffffffffffffff1673ffffffffffffffffffffffffffffffffffffffff168152602001908152602001600020600401848054600181600116156101000203166002900480601f0160208091040260200160405190810160405280929190818152602001828054600181600116156101000203166002900480156115d15780601f106115a6576101008083540402835291602001916115d1565b820191906000526020600020905b8154815290600101906020018083116115b457829003601f168201915b505050505094508280548060200260200160405190810160405280929190818152602001828054801561162357602002820191906000526020600020905b81548152602001906001019080831161160f575b50505050509250808054600181600116156101000203166002900480601f0160208091040260200160405190810160405280929190818152602001828054600181600116156101000203166002900480156116bf5780601f10611694576101008083540402835291602001916116bf565b820191906000526020600020905b8154815290600101906020018083116116a257829003601f168201915b505050505090509450945094509450945091939590929450565b60606000600560008473ffffffffffffffffffffffffffffffffffffffff1673ffffffffffffffffffffffffffffffffffffffff168152602001908152602001600020600001600560008573ffffffffffffffffffffffffffffffffffffffff1673ffffffffffffffffffffffffffffffffffffffff16815260200190815260200160002060010154818054600181600116156101000203166002900480601f0160208091040260200160405190810160405280929190818152602001828054600181600116156101000203166002900480156117f75780601f106117cc576101008083540402835291602001916117f7565b820191906000526020600020905b8154815290600101906020018083116117da57829003601f168201915b5050505050915091509150915091565b60038181548110151561181657fe5b906000526020600020016000915054906101000a900473ffffffffffffffffffffffffffffffffffffffff1681565b6060600460008373ffffffffffffffffffffffffffffffffffffffff1673ffffffffffffffffffffffffffffffffffffffff1681526020019081526020016000206004018054600181600116156101000203166002900480601f01602080910402602001604051908101604052809291908181526020018280546001816001161561010002031660029004801561191d5780601f106118f25761010080835404028352916020019161191d565b820191906000526020600020905b81548152906001019060200180831161190057829003601f168201915b50505050509050919050565b606060006060806060600660008773ffffffffffffffffffffffffffffffffffffffff1673ffffffffffffffffffffffffffffffffffffffff168152602001908152602001600020600001600660008873ffffffffffffffffffffffffffffffffffffffff1673ffffffffffffffffffffffffffffffffffffffff16815260200190815260200160002060010154600660008973ffffffffffffffffffffffffffffffffffffffff1673ffffffffffffffffffffffffffffffffffffffff168152602001908152602001600020600201600660008a73ffffffffffffffffffffffffffffffffffffffff1673ffffffffffffffffffffffffffffffffffffffff168152602001908152602001600020600301600660008b73ffffffffffffffffffffffffffffffffffffffff1673ffffffffffffffffffffffffffffffffffffffff168152602001908152602001600020600401848054600181600116156101000203166002900480601f016020809104026020016040519081016040528092919081815260200182805460018160011615610100020316600290048015611b125780601f10611ae757610100808354040283529160200191611b12565b820191906000526020600020905b815481529060010190602001808311611af557829003601f168201915b5050505050945082805480602002602001604051908101604052809291908181526020018280548015611b9a57602002820191906000526020600020905b8160009054906101000a900473ffffffffffffffffffffffffffffffffffffffff1673ffffffffffffffffffffffffffffffffffffffff1681526020019060010190808311611b50575b5050505050925081805480602002602001604051908101604052809291908181526020018280548015611c2257602002820191906000526020600020905b8160009054906101000a900473ffffffffffffffffffffffffffffffffffffffff1673ffffffffffffffffffffffffffffffffffffffff1681526020019060010190808311611bd8575b5050505050915080805480602002602001604051908101604052809291908181526020018280548015611c7457602002820191906000526020600020905b815481526020019060010190808311611c60575b505050505090509450945094509450945091939590929450565b673782dace9d90000034141515611ca457600080fd5b8073ffffffffffffffffffffffffffffffffffffffff166108fc349081150290604051600060405180830381858888f19350505050158015611cea573d6000803e3d6000fd5b506000611d38600660003373ffffffffffffffffffffffffffffffffffffffff1673ffffffffffffffffffffffffffffffffffffffff168152602001908152602001600020600201836131aa565b506001600660003373ffffffffffffffffffffffffffffffffffffffff1673ffffffffffffffffffffffffffffffffffffffff168152602001908152602001600020600401805490501415611e0857600660003373ffffffffffffffffffffffffffffffffffffffff1673ffffffffffffffffffffffffffffffffffffffff16815260200190815260200160002060030181815481101515611dd657fe5b9060005260206000200160006101000a81549073ffffffffffffffffffffffffffffffffffffffff0219169055612026565b600660003373ffffffffffffffffffffffffffffffffffffffff1673ffffffffffffffffffffffffffffffffffffffff1681526020019081526020016000206003016001600660003373ffffffffffffffffffffffffffffffffffffffff1673ffffffffffffffffffffffffffffffffffffffff1681526020019081526020016000206003018054905003815481101515611e9f57fe5b9060005260206000200160009054906101000a900473ffffffffffffffffffffffffffffffffffffffff16600660003373ffffffffffffffffffffffffffffffffffffffff1673ffffffffffffffffffffffffffffffffffffffff16815260200190815260200160002060030182815481101515611f1957fe5b9060005260206000200160006101000a81548173ffffffffffffffffffffffffffffffffffffffff021916908373ffffffffffffffffffffffffffffffffffffffff160217905550600660003373ffffffffffffffffffffffffffffffffffffffff1673ffffffffffffffffffffffffffffffffffffffff1681526020019081526020016000206003016001600660003373ffffffffffffffffffffffffffffffffffffffff1673ffffffffffffffffffffffffffffffffffffffff1681526020019081526020016000206003018054905003815481101515611ff857fe5b9060005260206000200160006101000a81549073ffffffffffffffffffffffffffffffffffffffff02191690555b600660003373ffffffffffffffffffffffffffffffffffffffff1673ffffffffffffffffffffffffffffffffffffffff16815260200190815260200160002060030180548091906001900361207b91906133f4565b506001600660003373ffffffffffffffffffffffffffffffffffffffff1673ffffffffffffffffffffffffffffffffffffffff16815260200190815260200160002060040180549050141561212c57600660003373ffffffffffffffffffffffffffffffffffffffff1673ffffffffffffffffffffffffffffffffffffffff1681526020019081526020016000206004018181548110151561211957fe5b90600052602060002001600090556122d1565b600660003373ffffffffffffffffffffffffffffffffffffffff1673ffffffffffffffffffffffffffffffffffffffff1681526020019081526020016000206004016001600660003373ffffffffffffffffffffffffffffffffffffffff1673ffffffffffffffffffffffffffffffffffffffff16815260200190815260200160002060040180549050038154811015156121c357fe5b9060005260206000200154600660003373ffffffffffffffffffffffffffffffffffffffff1673ffffffffffffffffffffffffffffffffffffffff1681526020019081526020016000206004018281548110151561221d57fe5b9060005260206000200181905550600660003373ffffffffffffffffffffffffffffffffffffffff1673ffffffffffffffffffffffffffffffffffffffff1681526020019081526020016000206004016001600660003373ffffffffffffffffffffffffffffffffffffffff1673ffffffffffffffffffffffffffffffffffffffff16815260200190815260200160002060040180549050038154811015156122c257fe5b90600052602060002001600090555b600660003373ffffffffffffffffffffffffffffffffffffffff1673ffffffffffffffffffffffffffffffffffffffff1681526020019081526020016000206004018054809190600190036123269190613420565b505050565b60018181548110151561233a57fe5b906000526020600020016000915054906101000a900473ffffffffffffffffffffffffffffffffffffffff1681565b671bc16d674ec800003414151561237f57600080fd5b600260008082825401925050819055506001600560008373ffffffffffffffffffffffffffffffffffffffff1673ffffffffffffffffffffffffffffffffffffffff1681526020019081526020016000206002013390806001815401808255809150509060018203906000526020600020016000909192909190916101000a81548173ffffffffffffffffffffffffffffffffffffffff021916908373ffffffffffffffffffffffffffffffffffffffff16021790555050506001600460003373ffffffffffffffffffffffffffffffffffffffff1673ffffffffffffffffffffffffffffffffffffffff1681526020019081526020016000206002018290806001815401808255809150509060018203906000526020600020016000909192909190916101000a81548173ffffffffffffffffffffffffffffffffffffffff021916908373ffffffffffffffffffffffffffffffffffffffff160217905550505050565b6060600280548060200260200160405190810160405280929190818152602001828054801561256857602002820191906000526020600020905b8160009054906101000a900473ffffffffffffffffffffffffffffffffffffffff1673ffffffffffffffffffffffffffffffffffffffff168152602001906001019080831161251e575b5050505050905090565b600081519050670de0b6b3a764000081023414151561259057600080fd5b8273ffffffffffffffffffffffffffffffffffffffff166108fc349081150290604051600060405180830381858888f193505050501580156125d6573d6000803e3d6000fd5b5082600760003373ffffffffffffffffffffffffffffffffffffffff1673ffffffffffffffffffffffffffffffffffffffff16815260200190815260200160002060006101000a81548173ffffffffffffffffffffffffffffffffffffffff021916908373ffffffffffffffffffffffffffffffffffffffff16021790555081600460003373ffffffffffffffffffffffffffffffffffffffff1673ffffffffffffffffffffffffffffffffffffffff16815260200190815260200160002060030190805190602001906126ab92919061344c565b50600660008473ffffffffffffffffffffffffffffffffffffffff1673ffffffffffffffffffffffffffffffffffffffff16815260200190815260200160002060010160008154809291906001019190505550505050565b6060600560008373ffffffffffffffffffffffffffffffffffffffff1673ffffffffffffffffffffffffffffffffffffffff1681526020019081526020016000206002018054806020026020016040519081016040528092919081815260200182805480156127c757602002820191906000526020600020905b8160009054906101000a900473ffffffffffffffffffffffffffffffffffffffff1673ffffffffffffffffffffffffffffffffffffffff168152602001906001019080831161277d575b50505050509050919050565b6060600180548060200260200160405190810160405280929190818152602001828054801561285757602002820191906000526020600020905b8160009054906101000a900473ffffffffffffffffffffffffffffffffffffffff1673ffffffffffffffffffffffffffffffffffffffff168152602001906001019080831161280d575b5050505050905090565b606060038054806020026020016040519081016040528092919081815260200182805480156128e557602002820191906000526020600020905b8160009054906101000a900473ffffffffffffffffffffffffffffffffffffffff1673ffffffffffffffffffffffffffffffffffffffff168152602001906001019080831161289b575b5050505050905090565b60003390506000831415612a5f5784600460008373ffffffffffffffffffffffffffffffffffffffff1673ffffffffffffffffffffffffffffffffffffffff1681526020019081526020016000206000019080519060200190612953929190613499565b5083600460008373ffffffffffffffffffffffffffffffffffffffff1673ffffffffffffffffffffffffffffffffffffffff1681526020019081526020016000206001018190555081600460008373ffffffffffffffffffffffffffffffffffffffff1673ffffffffffffffffffffffffffffffffffffffff16815260200190815260200160002060040190805190602001906129f1929190613499565b506001808290806001815401808255809150509060018203906000526020600020016000909192909190916101000a81548173ffffffffffffffffffffffffffffffffffffffff021916908373ffffffffffffffffffffffffffffffffffffffff1602179055505050612c49565b6001831415612b745784600560008373ffffffffffffffffffffffffffffffffffffffff1673ffffffffffffffffffffffffffffffffffffffff1681526020019081526020016000206000019080519060200190612abe929190613499565b5083600560008373ffffffffffffffffffffffffffffffffffffffff1673ffffffffffffffffffffffffffffffffffffffff16815260200190815260200160002060010181905550600160028290806001815401808255809150509060018203906000526020600020016000909192909190916101000a81548173ffffffffffffffffffffffffffffffffffffffff021916908373ffffffffffffffffffffffffffffffffffffffff1602179055505050612c48565b6002831415612c425784600660008373ffffffffffffffffffffffffffffffffffffffff1673ffffffffffffffffffffffffffffffffffffffff1681526020019081526020016000206000019080519060200190612bd3929190613499565b50600160038290806001815401808255809150509060018203906000526020600020016000909192909190916101000a81548173ffffffffffffffffffffffffffffffffffffffff021916908373ffffffffffffffffffffffffffffffffffffffff1602179055505050612c47565b600080fd5b5b5b5050505050565b600080905060008090505b600560003373ffffffffffffffffffffffffffffffffffffffff1673ffffffffffffffffffffffffffffffffffffffff16815260200190815260200160002060020180549050811015612dc6578473ffffffffffffffffffffffffffffffffffffffff16600560003373ffffffffffffffffffffffffffffffffffffffff1673ffffffffffffffffffffffffffffffffffffffff16815260200190815260200160002060020182815481101515612d0e57fe5b9060005260206000200160009054906101000a900473ffffffffffffffffffffffffffffffffffffffff1673ffffffffffffffffffffffffffffffffffffffff161415612db9573373ffffffffffffffffffffffffffffffffffffffff166108fc671bc16d674ec800009081150290604051600060405180830381858888f19350505050158015612da3573d6000803e3d6000fd5b5060026000808282540392505081905550600191505b8080600101915050612c5b565b50600115158115151415612ded57612dde8483613399565b612de884336110b9565b612df2565b600080fd5b600080905060008090505b600460008773ffffffffffffffffffffffffffffffffffffffff1673ffffffffffffffffffffffffffffffffffffffff16815260200190815260200160002060030180549050811015612ebd5784600460008873ffffffffffffffffffffffffffffffffffffffff1673ffffffffffffffffffffffffffffffffffffffff16815260200190815260200160002060030182815481101515612e9a57fe5b90600052602060002001541415612eb057600191505b8080600101915050612dfd565b5080156131a357600160066000600760008973ffffffffffffffffffffffffffffffffffffffff1673ffffffffffffffffffffffffffffffffffffffff16815260200190815260200160002060009054906101000a900473ffffffffffffffffffffffffffffffffffffffff1673ffffffffffffffffffffffffffffffffffffffff1673ffffffffffffffffffffffffffffffffffffffff1681526020019081526020016000206002018690806001815401808255809150509060018203906000526020600020016000909192909190916101000a81548173ffffffffffffffffffffffffffffffffffffffff021916908373ffffffffffffffffffffffffffffffffffffffff1602179055505050600160066000600760008973ffffffffffffffffffffffffffffffffffffffff1673ffffffffffffffffffffffffffffffffffffffff16815260200190815260200160002060009054906101000a900473ffffffffffffffffffffffffffffffffffffffff1673ffffffffffffffffffffffffffffffffffffffff1673ffffffffffffffffffffffffffffffffffffffff1681526020019081526020016000206003013390806001815401808255809150509060018203906000526020600020016000909192909190916101000a81548173ffffffffffffffffffffffffffffffffffffffff021916908373ffffffffffffffffffffffffffffffffffffffff1602179055505050600160066000600760008973ffffffffffffffffffffffffffffffffffffffff1673ffffffffffffffffffffffffffffffffffffffff16815260200190815260200160002060009054906101000a900473ffffffffffffffffffffffffffffffffffffffff1673ffffffffffffffffffffffffffffffffffffffff1673ffffffffffffffffffffffffffffffffffffffff168152602001908152602001600020600401859080600181540180825580915050906001820390600052602060002001600090919290919091505550505b5050505050565b60008060009050600080905060008090505b8580549050811015613249578473ffffffffffffffffffffffffffffffffffffffff1686828154811015156131ed57fe5b9060005260206000200160009054906101000a900473ffffffffffffffffffffffffffffffffffffffff1673ffffffffffffffffffffffffffffffffffffffff16141561323c57600192508091505b80806001019150506131bc565b5081151561325657600080fd5b6001858054905014156132a357848181548110151561327157fe5b9060005260206000200160006101000a81549073ffffffffffffffffffffffffffffffffffffffff021916905561337c565b8460018680549050038154811015156132b857fe5b9060005260206000200160009054906101000a900473ffffffffffffffffffffffffffffffffffffffff1685828154811015156132f157fe5b9060005260206000200160006101000a81548173ffffffffffffffffffffffffffffffffffffffff021916908373ffffffffffffffffffffffffffffffffffffffff16021790555084600186805490500381548110151561334e57fe5b9060005260206000200160006101000a81549073ffffffffffffffffffffffffffffffffffffffff02191690555b848054809190600190036133909190613519565b50505092915050565b80600460008473ffffffffffffffffffffffffffffffffffffffff1673ffffffffffffffffffffffffffffffffffffffff16815260200190815260200160002060040190805190602001906133ef929190613499565b505050565b81548183558181111561341b5781836000526020600020918201910161341a9190613545565b5b505050565b815481835581811115613447578183600052602060002091820191016134469190613545565b5b505050565b828054828255906000526020600020908101928215613488579160200282015b8281111561348757825182559160200191906001019061346c565b5b5090506134959190613545565b5090565b828054600181600116156101000203166002900490600052602060002090601f016020900481019282601f106134da57805160ff1916838001178555613508565b82800160010185558215613508579182015b828111156135075782518255916020019190600101906134ec565b5b5090506135159190613545565b5090565b8154818355818111156135405781836000526020600020918201910161353f9190613545565b5b505050565b61356791905b8082111561356357600081600090555060010161354b565b5090565b9056fea165627a7a7230582028aaf4b42ee6da0afaf47be9c3bee588a54ecceffd80e26f37b1e42d54a08f2e0029",
  "source": "pragma solidity ^0.5.0;\r\n\r\ncontract Healthcare {\r\n    \r\n    struct patient {\r\n        string name;\r\n        uint age;\r\n        address[] doctorAccessList;\r\n        uint[] diagnosis;\r\n        string record;\r\n    }\r\n    \r\n    struct doctor {\r\n        string name;\r\n        uint age;\r\n        address[] patientAccessList;\r\n    }\r\n\r\n    struct insurer {\r\n        string name;\r\n        uint count_of_patient;\r\n        address[] PatientWhoClaimed;\r\n        address[] DocName;\r\n        uint[] diagnosis; \r\n    }\r\n\r\n\r\n    uint creditPool;\r\n\r\n    address[] public patientList;\r\n    address[] public doctorList;\r\n    address[] public insurerList;\r\n\r\n    mapping (address => patient) patientInfo;\r\n    mapping (address => doctor) doctorInfo;\r\n    mapping (address => insurer) insurerInfo;\r\n    mapping (address => address) Patient_Insurer;\r\n    // might not be necessary\r\n    mapping (address => string) patientRecords;\r\n\r\n\r\n    function add_agent(string memory _name, uint _age, uint _designation, string memory _hash) public {\r\n        address addr = msg.sender;\r\n        \r\n        if(_designation == 0){\r\n            patientInfo[addr].name = _name;\r\n            patientInfo[addr].age = _age;\r\n            patientInfo[addr].record = _hash;\r\n            patientList.push(addr)-1;\r\n        }\r\n       else if (_designation == 1){\r\n            doctorInfo[addr].name = _name;\r\n            doctorInfo[addr].age = _age;\r\n            doctorList.push(addr)-1;\r\n\r\n       }\r\n       else if(_designation == 2){\r\n           insurerInfo[addr].name = _name;\r\n           insurerList.push(addr)-1;\r\n       }\r\n       else{\r\n           revert();\r\n       }\r\n    }\r\n\r\n    function get_patient(address addr) view public returns (string memory, uint, uint[] memory, address, string memory){\r\n        // if(keccak256(patientInfo[addr].name) == keccak256(\"\"))revert();\r\n        return (patientInfo[addr].name, patientInfo[addr].age, patientInfo[addr].diagnosis, Patient_Insurer[addr], patientInfo[addr].record);\r\n    }\r\n\r\n    function get_doctor(address addr) view public returns (string memory, uint ){\r\n        // if(keccak256(doctorInfo[addr].name)==keccak256(\"\"))revert();\r\n        return (doctorInfo[addr].name, doctorInfo[addr].age);\r\n    }\r\n    function get_patient_doctor_name(address paddr, address daddr) view public returns (string memory, string memory){\r\n        return (patientInfo[paddr].name,doctorInfo[daddr].name);\r\n    }\r\n    function get_insurer(address addr) view public returns (string memory, uint, address[] memory, address[] memory, uint[] memory ){\r\n        // if(keccak256(doctorInfo[addr].name)==keccak256(\"\"))revert();\r\n        return (insurerInfo[addr].name, insurerInfo[addr].count_of_patient, insurerInfo[addr].PatientWhoClaimed, \r\n        insurerInfo[addr].DocName, insurerInfo[addr].diagnosis);\r\n    }\r\n\r\n    function permit_access(address addr) payable public {\r\n        require(msg.value == 2 ether);\r\n\r\n        creditPool += 2;\r\n        \r\n        doctorInfo[addr].patientAccessList.push(msg.sender)-1;\r\n        patientInfo[msg.sender].doctorAccessList.push(addr)-1;\r\n        \r\n\r\n    }\r\n\r\n   \r\n    function select_insurer(address payable iaddr, uint[] memory _diagnosis) payable public {\r\n        uint total_amount = (_diagnosis.length);\r\n        require(msg.value == total_amount*(1 ether));\r\n        // require(msg.sender.balance >= msg.value);\r\n        iaddr.transfer(msg.value);\r\n        Patient_Insurer[msg.sender] = iaddr;\r\n        patientInfo[msg.sender].diagnosis = _diagnosis;\r\n        insurerInfo[iaddr].count_of_patient++;\r\n    }\r\n\r\n    //must be called by doctor\r\n    function insurance_claim(address paddr, uint _diagnosis, string memory _hash) public {\r\n        bool patientFound = false;\r\n        for(uint i = 0;i<doctorInfo[msg.sender].patientAccessList.length;i++){\r\n            if(doctorInfo[msg.sender].patientAccessList[i]==paddr){\r\n                msg.sender.transfer(2 ether);\r\n                creditPool -= 2;\r\n                patientFound = true;\r\n                \r\n            }\r\n            \r\n        }\r\n        if(patientFound==true){\r\n            set_hash(paddr, _hash);\r\n            remove_patient(paddr, msg.sender);\r\n        }else {\r\n            revert();\r\n        }\r\n\r\n        bool DiagnosisFound = false;\r\n        for(uint j = 0; j < patientInfo[paddr].diagnosis.length;j++){\r\n            if(patientInfo[paddr].diagnosis[j] == _diagnosis)DiagnosisFound = true;\r\n        }\r\n        if(DiagnosisFound){\r\n            insurerInfo[Patient_Insurer[paddr]].PatientWhoClaimed.push(paddr)-1;\r\n            insurerInfo[Patient_Insurer[paddr]].DocName.push(msg.sender)-1;\r\n            insurerInfo[Patient_Insurer[paddr]].diagnosis.push(_diagnosis)-1;\r\n        }\r\n    }\r\n\r\n    //must be called by insurer\r\n\r\n    function accept_claim(address payable paddr) public payable {\r\n        // require(msg.sender.balance >= msg.value);\r\n        require(msg.value == 4 ether);\r\n        paddr.transfer(msg.value);\r\n        uint index;\r\n        remove_element_in_array(insurerInfo[msg.sender].PatientWhoClaimed,paddr);\r\n        if(insurerInfo[msg.sender].diagnosis.length == 1){\r\n            delete insurerInfo[msg.sender].DocName[index];\r\n        }\r\n        else {\r\n            insurerInfo[msg.sender].DocName[index] = insurerInfo[msg.sender].DocName[insurerInfo[msg.sender].DocName.length - 1];\r\n            delete insurerInfo[msg.sender].DocName[insurerInfo[msg.sender].DocName.length - 1];\r\n\r\n        }\r\n        insurerInfo[msg.sender].DocName.length--;\r\n\r\n        if(insurerInfo[msg.sender].diagnosis.length == 1){\r\n            delete insurerInfo[msg.sender].diagnosis[index];\r\n        }\r\n        else {\r\n            insurerInfo[msg.sender].diagnosis[index] = insurerInfo[msg.sender].diagnosis[insurerInfo[msg.sender].diagnosis.length - 1];\r\n            delete insurerInfo[msg.sender].diagnosis[insurerInfo[msg.sender].diagnosis.length - 1];\r\n\r\n        }\r\n        insurerInfo[msg.sender].diagnosis.length--;   \r\n    }\r\n    \r\n    function remove_element_in_array(address[] storage Array, address addr) internal returns(uint)\r\n    {\r\n        bool check = false;\r\n        uint del_index = 0;\r\n        for(uint i = 0; i<Array.length; i++){\r\n            if(Array[i] == addr){\r\n                check = true;\r\n                del_index = i;\r\n            }\r\n        }\r\n        if(!check) revert();\r\n        else{\r\n            if(Array.length == 1){\r\n                delete Array[del_index];\r\n            }\r\n            else {\r\n                Array[del_index] = Array[Array.length - 1];\r\n                delete Array[Array.length - 1];\r\n\r\n            }\r\n            Array.length--;\r\n        }\r\n    }\r\n\r\n    function remove_patient(address paddr, address daddr) public {\r\n        remove_element_in_array(doctorInfo[daddr].patientAccessList, paddr);\r\n        remove_element_in_array(patientInfo[paddr].doctorAccessList, daddr);\r\n    }\r\n    \r\n    function get_accessed_doctorlist_for_patient(address addr) public view returns (address[] memory)\r\n    { \r\n        address[] storage doctoraddr = patientInfo[addr].doctorAccessList;\r\n        return doctoraddr;\r\n    }\r\n    function get_accessed_patientlist_for_doctor(address addr) public view returns (address[] memory)\r\n    {\r\n        return doctorInfo[addr].patientAccessList;\r\n    }\r\n\r\n    \r\n    function revoke_access(address daddr) public payable{\r\n        remove_patient(msg.sender,daddr);\r\n        msg.sender.transfer(2 ether);\r\n        creditPool -= 2;\r\n    }\r\n\r\n    function get_patient_list() public view returns(address[] memory){\r\n        return patientList;\r\n    }\r\n\r\n    function get_doctor_list() public view returns(address[] memory){\r\n        return doctorList;\r\n    }\r\n    function get_insurer_list() public view returns(address[] memory){\r\n        return insurerList;\r\n    }\r\n\r\n    function get_hash(address paddr) public view returns(string memory){\r\n        return patientInfo[paddr].record;\r\n    }\r\n\r\n    function set_hash(address paddr, string memory _hash) internal {\r\n        patientInfo[paddr].record = _hash;\r\n    }\r\n\r\n}\r\n\r\n",
  "sourcePath": "C:/Users/varly/OneDrive/Desktop/HEALTHCARE/blockchain-for-healthcare/contracts/Healthcare.sol",
  "compiler": {
    "name": "solc",
    "version": "0.5.0+commit.1d4f565a.Emscripten.clang"
  },
  "schemaVersion": "3.0.1",
  "updatedAt": "2020-01-20T15:08:46.962Z",
  "devdoc": {
    "methods": {}
  },
  "userdoc": {
    "methods": {}
  }
}